:1000000078B300205D660000CD64000059660000F2
:1000100059660000596600005966000059660000E4
:100020000000000000000000000000005966000011
:100030005966000000000000596600005966000083
:10004000095A000065620000E947000069440000A9
:10005000AD43000069450000DD4500006D53000020
:100060000000000000000000000000000000000090
:100070000000000000000000000000000000000080
:100080000000000000000000000000000000000070
:100090000000000000000000000000000000000060
:1000A0000000000000000000000000000000000050
:1000B0000000000000000000000000000000000040
:1000C0000000000000000000000000000000000030
:1000D0000000000000000000000000000000000020
:1000E0000000000000000000000000000000000010
:1000F0000000000000000000000000000000000000
:1001000000000000000000000000000000000000EF
:1001100000000000000000000000000000000000DF
:1001200000000000000000000000000000000000CF
:1001300000000000000000000000000000000000BF
:1001400000000000000000000000000000000000AF
:10015000000000000000000000000000000000009F
:10016000000000000000000000000000000000008F
:10017000000000000000000000000000000000007F
:10018000000000000000000000000000000000006F
:10019000000000000000000000000000000000005F
:1001A000000000000000000000000000000000004F
:1001B000000000000000000000000000000000003F
:1001C000FFFFFFFFFFFFFFFFFFFFFFFFFFFFFFFF3F
:1001D000FFFFFFFFFFFFFFFFFFFFFFFFFFFFFFFF2F
:1001E000FFFFFFFFFFFFFFFFFFFFFFFFFFFFFFFF1F
:1001F000FFFFFFFFFFFFFFFFFFFFFFFFFFFFFFFF0F
:1002000010B5054C237833B9044B13B1044800E012
:1002100000BF0123237010BDA802002000000000D1
:100220000893020008B5034B1BB10349034800E0E3
:1002300000BF08BD00000000AC02002008930200CF
:1002400070B5064686B00E4C0D46684689B207F07A
:10025000F5FA684622463146002307F03BFA0023B0
:10026000D4F804E004EB850CCCF800E03146636080
:100270002A462046CCF8043007F04CFB06B070BD8F
:10028000C4020020D36B002B45DD2DE9F0432DED9A
:10029000028B144606460F460025B7EE008A936A85
:1002A00083B0002B32DD4FF00008E36A226A03FBC3
:1002B00008F1A36C920003FB051107EB8109484686
:1002C00006EB810108F084F940214846FFF7B8FFAA
:1002D000216A484601EBD17101AA491007F00CFBD5
:1002E0009DED017AF1EEC77A88EE270A4946484625
:1002F000E26A8DED010A07F049FBA36A08F10108E3
:100300004345D2DCE26B01359542CADB03B0BDEC5C
:10031000028BBDE8F08370472DE9F84F934689467C
:100320002A49FFF7AFFFDBF83C20DBF82030002A3A
:1003300003EBD37848DD012B46DD00274FEA680840
:10034000234E4FEA88040025DBF8280000280FDD43
:10035000DBF848301E4A03FB07531C4902EB800CB4
:1003600001EB83031968234442F8041B9445F9D137
:10037000DBF824A0824507DDAAEB000200219200F1
:1003800006EB800008F031F951463046FFF758FF80
:10039000DBF82420DBF8480005FB02F303EBD37302
:1003A0005B1000FB073002EBD27252103146920014
:1003B000013509EB800008F00BF9A845C4DCDBF837
:1003C0003C300137BB42BEDCBDE8F88FCC030020D7
:1003D000D45D00202DE9F0434FF00008036C83B09A
:1003E000002B0446CDF8048037DD8946002582695C
:1003F0001B4E636BA76805FB03F102EB850C4846B7
:10040000324607EB8101CCF8008007F0C9FA636B34
:10041000E16805FB03FC324601EB8C01104807F054
:10042000A9FA626B216805FB02FC01AB01EB8C01B0
:10043000304607F08FFAA269236C4FEA850C0199C8
:1004400001359444AB42CCF80010D2DC1046616810
:1004500007F074FA03B0BDE8F0838269F6E700BFE5
:10046000705E00202DE9F043856B002D4CDDB7EE6A
:10047000006AB6EE005A4FF0000CDFED274A6FF02D
:100480000309066CC469254F4FEA860804EB85050D
:10049000002EE4EC014A9FED207A37DDF0EE476A4A
:1004A00001690CEB080EA9EB010201EB0C03A2EBB6
:1004B0000C0C7144F3EC017AF5EE407AF1EE10FA8F
:1004C00013D0826976EE866A1A446244D2ED005AED
:1004D00067EEA57AF4EEC67AF1EE10FA44BF76EE36
:1004E000677AA7EE857A04ED017A9942E2D187ED29
:1004F000007A54ED017AF1EE677A87EEA67AAC4283
:10050000F44604ED017AC3D1BDE8F083F0EE476A0A
:100510000CEB080EEBE700BF000000005C5E002063
:1005200010B50023044682B00093FFF753FF204626
:10053000FFF798FF6B46E069A16B01AA07F0B8F9D5
:10054000606C009B184402B010BD00BF10B5054C94
:1005500005492246FFF7E0FE20460349FFF7E0FF8A
:10056000C0B210BD80010020706600202DE9F84F58
:10057000624B634C1A7823789A4240F0BC80614BFE
:1005800061499A6891ED000A9269186890475F4B3B
:100590005F4A18885F4B07EE900AD3ED003A5E4B36
:1005A00092ED003A93ED004A5C4B9FED5D6A93ED4E
:1005B000005A5C4A5C4BF8EEE77A93ED007AD2ED94
:1005C000005A5A4923EE063AD1ED006A584963EEC3
:1005D000A73AD1ED004A25EE275A65EEA75A67EEF5
:1005E000277A5449544B0E681968544B544A59663B
:1005F0005449156891ED006A534A5449C3ED0C6A99
:10060000166124EE264A64EEA64A82ED023AD1ED46
:10061000006A4F4A4F49C3ED037A91ED007AD2ED5B
:10062000007ADFF848B1DFF848A1DFF84891DFF839
:100630004881DFF848E1DFF848C1474F474A1D6667
:1006400083ED216AC3ED023A83ED094AC3ED0A4AFC
:1006500083ED0D5AC3ED0E5AC3ED226A83ED237A62
:10066000C3ED247AA3F880003D4DDBF800B0D9F843
:100670000090D8F80080DEF800E0DCF800C03F68A9
:10068000DAF800A0C3F894B0D5E90E3583ED016A1D
:100690001880C3ED026A83ED037AC3ED047AC3F8D0
:1006A00014B0C5F800A0C5F8049082ED076AC2ED49
:1006B000086A82ED097AC2ED0A7AC2F80480C2F8AB
:1006C00008E0C2F80CC01761C2F82CB010834FF0DC
:1006D00001022449244E81ED096AC1ED0A6A81EDC7
:1006E0000B7A0884C1ED0C7A2378C1F834B083F01A
:1006F000010332702370BDE8F88F00BFDC6E00206C
:10070000606F0020C8B10000D06E0020DE6E0020B7
:10071000BC6E0020986E0020B86E00208C6E002009
:10072000B6C30740906E00209C6E0020CC6E002067
:10073000B46E0020C06E0020D86E0020DC70002057
:10074000D46E0020B06E0020A8700020A46E00209F
:10075000AC6E0020A86E0020C86E002078700020CB
:10076000B86F002094920020646F0020A06E0020DB
:100770007C6E0020806E0020846E0020886E002039
:10078000C46E0020494BB7EE005AB3F880004849C8
:1007900007EE900AF8EEE75AD1ED026A9FED456A3E
:1007A000C5EE257A93ED027A002293ED213AD3ED3E
:1007B000223A93ED234AD3ED244A93ED255A70B59E
:1007C00066EE866A3C4C3D4D3D4EE46B27EE277A43
:1007D00032702A70D4ED005A94ED016A394ED3F884
:1007E00060E030803848394A80ED003A38489C69EA
:1007F000C0ED003A3748D3F864C080ED004A36486F
:10080000364DC0ED004A36482C6080ED005A354820
:100810005568C0ED006A3448946880ED007A33482A
:10082000C0ED005A324880ED006A3248C0F800E05E
:100830003148C0F800C031480560D3ED0C5A93ED43
:10084000037A93ED0D6AD3ED0E6A93ED094AD3ED69
:100850000A4A26EE276A66EEA76A84EE255A67EEF4
:10086000277A84EEA57AD2F810C0254BD2F80CE096
:10087000C3F800C00A69234B23481A60234B046065
:10088000C3ED005A224D234C23482449244A254BCA
:1008900084ED006AC0ED006AC1ED007A82ED005A75
:1008A00083ED007AC5F800E070BD00BFDC70002069
:1008B000A8700020F05BF13EB86F0020606F002050
:1008C000DC6E0020DE6E0020B06E0020787000200C
:1008D000A46E0020A86E0020AC6E0020946E002054
:1008E000A06E0020BC6E0020986E00207C6E002060
:1008F000806E0020D46E0020D86E0020846E002010
:10090000C86E0020C06E0020886E0020CC6E0020D3
:10091000C46E00208C6E0020906E00209C6E002023
:10092000B86E0020B46E002038B55A490B780133F8
:10093000DBB2092B0B7040F29280574B57481D6970
:100940005C6A056056485D69046056489C6A0560AB
:1009500055489D6904605548DC69056054481D6A26
:1009600004605448D3F8EC40056053489D68046027
:100970005248DC6805605248DD6B046051481C6CCD
:1009800005605148514A04605D6C514854680560E7
:100990005048956804605048146905604F489FEDC1
:1009A000507A04605569D3ED0C7A4E4893ED195A8C
:1009B00090ED1C4AD0ED1D4AD3ED1A5A93ED1E6AF4
:1009C000494CD3ED1F6A2560484C27EE877AC4ED69
:1009D000007AD2ED0E7A8569454CC3792560454D84
:1009E000D2F83CE02B704379057A4348D2F850C0E6
:1009F00005704248546D0370414B424883ED004AF4
:100A0000414B0460C3ED004A404B414C83ED005A1A
:100A1000404BC3ED005A404B83ED006A3F4BC3EDA2
:100A2000006A3F4BC3ED007A3E4BC3F800E03E4BFB
:100A3000C3F800C03D4B906E9B6BD2F86CC01B8816
:100A40003B4A07EE903AF8EE677A0023C7EE276A32
:100A50000B70384BC4F800C0C3ED006A1060364C10
:100A60002378012B00D038BD344B35499A6818687B
:100A7000536A9847334B34499A681868D36A984741
:100A8000324B33499A681868136B984700232370D8
:100A900038BD00BF656F002024930020006F002048
:100AA000FC6E0020086F0020046F00200C6F0020F7
:100AB000106F0020146F0020586F0020546F00202A
:100AC0005C6F0020346F0020386F0020949200206B
:100AD0003C6F0020F46E0020F86E0020306F002084
:100AE000EBC9184158950020E06E0020406F0020AF
:100AF0004C6F0020616F0020626F0020636F002048
:100B0000486F0020246F0020446F0020EC6E00200E
:100B1000286F0020E46E0020F06E0020E86E0020B8
:100B2000186F0020206F00201C6F0020B86F00207D
:100B30002C6F0020506F0020646F002000B2000076
:100B4000C0700020F4B000009C6F0020B0B0000026
:100B5000806F00202DE9F04F08212DED028B4FF022
:100B600000054FF44074DFF8C0815B4A46465B4B9A
:100B70005B4811805B4A83B00580D3E90001148093
:100B800003F084FD584BDFF8A4B193E80700136825
:100B900008EE100A01929847DE46544FDFF890A104
:100BA000BC46DAF88450524BDFF888919C6E0FCD2A
:100BB0000FC62D684F4E0FCDAEE80F0095E803002D
:100BC000C8F810B08EE803000FCCCAF88480ACE8F7
:100BD0000F0094E807008CE80700DFF85CB1B96902
:100BE0009822484607F0F4FCC7F81890D946DFF879
:100BF0004CE1414B7446DD6DDFF844C10FCDA9E8EF
:100C00000F002D68DFF83C810FCD0FC40FCD0FC44E
:100C10000FCD0FC495E80F0084E80F00DEE90E54F5
:100C20000FCDACE80F00354BD8F88C8095E8030069
:100C30008CE8030094E8030083E80300ACF11001A2
:100C4000CEE90E13CBF810E098E803000C46DFF86D
:100C5000F8A02B4B8AE803001D6E0FCC0FC6A6F13F
:100C60001003CAF804300FCC0FC6264F94E80F00CB
:100C700086E80F000FCD0FC795E80F0087E80F003B
:100C8000A7F110031C46F96848221F4807F0A0FC92
:100C90001D490123E1614FF000044FF416611B4A26
:100CA00014701B4A11801B4A13701B4A14701B4A94
:100CB00013701B4A13701B4B1C70FFF763FDFFF78B
:100CC00055FC18EE100A019A136903B0BDEC028BB3
:100CD000BDE8F04F184700BF746F0020C0B200009D
:100CE000766F0020786F0020C8B10000C07000202F
:100CF000589500207870002024930020B06F0020C9
:100D00003894002010700020307000206D6F00209B
:100D10007A6F0020716F00206C6F00206E6F0020D2
:100D2000676F0020666F0020886F0020A870002089
:100D3000D0940020DC7000209C6F0020B86F002051
:100D4000F86F002094920020806F00202DE9F0477A
:100D5000914C924D22782B7882B09A422FD02370FA
:100D600043BB8F4F8F4E3B783370DFF86C82FFF7B9
:100D7000FDFB98F800303278934204D0032B40F208
:100D8000A08088F80020884BD3F80890D3F800A002
:100D9000D9F820305046824998473378032B0BD13D
:100DA0003B78002B00F0BB80022B05D1337088F814
:100DB000003001E0012B09D002B0BDE8F087012A24
:100DC00004D0002AF8D1774E754FCEE7764B744C9D
:100DD0001E689D68214630462B6A98472478012C6E
:100DE00054D0022C38D03CB3704F714B9FED717AC8
:100DF0001B88DFED717A00EE103AB8EE400A30EE53
:100E0000470A20EE270A6D4C304684ED000AAB6994
:100E10009847D4ED007A9FED6A7AF4EEC77AF1EE46
:100E200010FA49DD9FED677AF4EEC77AF1EE10FA19
:100E300042D501233B70BFE740F6045162480DF1F3
:100E4000070203F045FD9DF80730012B56D0002224
:100E50005E4B564F1A70C8E740F607510DF1070276
:100E6000594803F035FD5A4A9DF807101378012BB5
:100E700039D0002BB8D10129E9D1544C2078013068
:100E8000C0B20A287ED8494F2070AEE70DF10702A4
:100E900040F604514C4803F01BFD9DF80720002A42
:100EA00035D00022494B1A70404F3B78002B9CD024
:100EB0003046EB68984798E700233B7002B0BDE8E6
:100EC000F087012B337047D0032B3BD0002B7FF4EE
:100ED0005AAF354BD3F800A0D3F808905046D9F854
:100EE0000C30984754E70029B1D1384803780133D2
:100EF000DBB20A2B4CD82D4F037076E7334A2B4FC9
:100F000013780133DBB20A2B33D813706DE72F4906
:100F10000B780133DBB20A2B28D80B70C4E74FF4EF
:100F20001660337088F800300123294A294923705C
:100F3000088013702B70FFF725FC02B0BDE8F04766
:100F4000FFF714BB184BD3F800A0D3F80890504615
:100F5000D9F8103098471BE7134BD3F800A0D3F80B
:100F600008905046D9F80830984711E70F4F0A709B
:100F70009EE73B781470012B3FF437AF3046AB68E7
:100F8000984732E7237030462B69117098472BE75A
:100F9000064F0170117028E7716F0020676F002005
:100FA0006D6F00206C6F0020C8B100006F6F0020D3
:100FB0007C6F002000E0FF44C5499CBF686F0020A3
:100FC0000000C8C30000C84364920020706F002076
:100FD0006E6F00207A6F0020666F002080B108B528
:100FE000084B186803F0BAFB074B01219A68186890
:100FF00053699847054A138843F00103138008BDDD
:10100000704700BFC0B20000C8B10000726F00207E
:101010000379032B04D0042B1DD0022B0AD0704778
:101020000E4B1B78022BFAD00D4B0E499A681868AC
:10103000136B184700B50C4B83B0DA6808211868A9
:1010400093690DF106029847BDF80620074B1A80F8
:1010500003B05DF804FBFFF767BC00BF6D6F0020B5
:10106000C8B10000726F002058AF00007C6F0020F4
:101070002DE9F04F83B0AF4DAF4B29681B68AF4CE3
:1010800081F0010101EB4101186800AF04EB41114F
:1010900004F0D0FAAA4B1E68002E00F09780A94BEE
:1010A000E846196801EB41039B00073323F007036F
:1010B000ADEB030D6B46C7E90013002900F08380F8
:1010C0004FF47A7E4FF0010C2A68DFF8889202EB29
:1010D000420204EB4212D07899F800B0C0F301103C
:1010E000D2F808A083F808B00EFA00FBAAEB0B0AAE
:1010F0000CFA00F06145C3F800A0586063D0D07CC2
:1011000099F801B0C0F30110D2F818A083F814B018
:101110000EFA00FBAAEB0B0A0CFA00F00229C3F846
:101120000CA018614FD092F8230099F802B0C0F3D8
:101130000110D2F828A083F820B00EFA00FBAAEB29
:101140000B0A0CFA00F00329C3F818A0D8613AD0B2
:1011500092F8330099F803B0C0F30110D2F838A028
:1011600083F82CB00EFA00FBAAEB0B0A0CFA00F085
:101170000429C3F824A0986225D092F8430099F876
:1011800004B0C0F30110D2F848A083F838B00EFACA
:1011900000FBAAEB0B0A0CFA00F00529C3F830A0FB
:1011A000586310D092F8531099F80500C1F301115B
:1011B00083F84400906D0EFA01FEA0EB0E000CFACD
:1011C00001F1C3E90F013846B047C5462A6802EB72
:1011D000420304EB43135868510058B15A48006861
:1011E000B0F5FA6F80F029815848006898604FF494
:1011F0007A70D881881804EB4010406958B1524881
:101200004068B0F5FA6F80F0F3805048406898610C
:101210004FF47A70D883881804EB4010406A58B1B4
:1012200049488068B0F5FA6F80F0BC804748806814
:1012300098624FF47A70D885881804EB4010406BA0
:1012400058B14148C068B0F5FA6F80F085803F48DA
:10125000C06898634FF47A70D887881804EB401000
:10126000406C58B138480069B0F5FA6F3DD2374844
:10127000006998644FF47A70A3F84E00114404EBAF
:101280004114616D59B130494969B1F5FA6F0DD218
:101290002E49496999654FF47A71A3F85E1082F07E
:1012A00001020C372A60BD46BDE8F08F4FF47A7C0E
:1012B00093F85300254CC0F301106469A1F57A7EC0
:1012C0009E6D0EFA00FE74440CFA00FE76449E6594
:1012D0009E6DA642DFD91E4CA4FB014189098140C5
:1012E000986D0CFB11019965D5E74FF47A7E93F860
:1012F0004360DFF858C0C6F30116DCF810C0A0F553
:101300007A79D3F8488009FA06F9CC440EFA06F93E
:10131000C844C3F84880D3F84880E045AAD9DFF82C
:1013200030C0ACFB00C08009B0409E6C0EFB10606A
:1013300098649FE76872002098720020A8710020CE
:10134000A4710020747200208C7100207471002040
:10135000D34D62106C7200204FF47A7E93F83360A4
:10136000DFF820C1C6F30116DCF80CC0A0F57A79CD
:10137000D3F8388009FA06F9CC440EFA06F9C844C5
:10138000C3F83880D3F83880E0457FF663AFDFF8E4
:10139000F8C0ACFB00C08009B0409E6B0EFB106033
:1013A000986357E74FF47A7E93F82360DFF8D4C050
:1013B000C6F30116DCF808C0A0F57A79D3F82880C6
:1013C00009FA06F9CC440EFA06F9C844C3F8288095
:1013D000D3F82880E0457FF62CAFDFF8ACC0ACFB3B
:1013E00000C08009B0409E6A0EFB1060986220E742
:1013F0004FF47A7EDE7CDFF88CC0C6F30116DCF891
:1014000004C0A0F57A79D3F8188009FA06F9CC441B
:101410000EFA06F9C844C3F81880D3F81880E045DE
:101420007FF6F6AEDFF860C0ACFB00C08009B040CC
:101430009E690EFB10609861EAE64FF47A7EDE78D2
:10144000DFF840C0C6F30116DCF800C0A0F57A79D9
:10145000D3F8088009FA06F9CC440EFA06F9C84414
:10146000C3F80880D3F80880E0457FF6C0AEDFF807
:1014700018C0ACFB00C08009B0409E680EFB106035
:101480009860B4E674710020D34D62102DE9F843E2
:1014900004460E46D0E90001174604F06DF8E8B99D
:1014A000D6E90153DFF848E0D3F80080F4460FCDC9
:1014B000ACE80F00DFF83C9095E80F008CE80F00D7
:1014C00071463068CEF81490C04738B9044B054ACD
:1014D0001C60054B17601E60044B1860BDE8F88364
:1014E00098720020A47100209C7200206872002075
:1014F0007872002071100000B3F57A7F18D32DE9BF
:10150000F0411C46494B15465A68002A7CD05A695E
:10151000002A7BD05A6A002A7CD05A6B002A7DD0E0
:101520005A6C3AB15A6D002A7CD00920BDE8F0818E
:1015300001207047042203F1400C0227561D02F1DE
:10154000FF3E03EB0E1E03EB06139EF802809E780F
:1015500067F3871867F387168EF802809E70CCF8C1
:1015600004004FF47A7043F2D333CCF80850ACF84F
:101570000E00BCF80200622903EA000343F00803EE
:10158000ACF802302A4B43F822502A4B43F8224051
:10159000294B99542FD022D842292CD0482920D128
:1015A00001224FF4FA669CF8033062F305138CF8BD
:1015B00003300CF1600E9CE80F008EE80F001F4A0C
:1015C000B4F5FA6F136828BFAD1903F101034FF0AA
:1015D000000028BFCCF868501360BDE8F08168298E
:1015E000DED002229CF803304FF47A6662F30513D2
:1015F0008CF80330DDE79CF803304FF47A766FF314
:1016000005138CF80330D4E79C46A8E7012203F1C8
:10161000100C92E7022203F1200C8EE7032203F163
:10162000300C8AE7052203F1500C86E7A8710020F0
:10163000747100208C7100206C7200207472002084
:10164000084B10B51B680849186803F0F3FF0446FF
:1016500028B9064B1B689A68186853689847204653
:1016600010BD00BF98720020A87100209C7200205D
:1016700038B50379022B00D038BD214C214B2268AC
:101680001B689A4235DA23681F4A002B126814DD62
:1016900000214FF0010C92FAA2F3002AB3FA83F36F
:1016A00008BF4FF0FF332068013301310CFA03F318
:1016B0005B42814202EA0302EDDB92FAA2F3B3FA43
:1016C00083F3D2B94FF0FF33104A114903EB4303C0
:1016D0009B000D68D15813444FF47A725B682868F8
:1016E00003FB02F2AB689B689847236801332360D1
:1016F00038BD4FF0FF33236038BD052BE4DD38BD26
:10170000F0720020EC720020E8720020A07200202D
:1017100014730020F8B5D0E901430E4E0546B446D7
:101720001F680FCCACE80F00DFF838E094E80F003A
:101730008CE80F0031462868C6F814E0B84738B97D
:101740004FF0FF32044B05491D60054B08601A60DD
:10175000F8BD00BFF472002014730020E87200206E
:10176000F0720020711600000346044A0020116840
:101770000B4303F03F031360704700BFE872002083
:1017800038B543681868FEF7E1FE424B42491D68D0
:1017900005F1FF3CBCF1000F41F82C000BDD0023EC
:1017A0001A46541C0133DBB251F824409C4541F8E1
:1017B00022401A46F5DC002D5CDD0B68374A012B10
:1017C000126815D008680023A0F10200B0FA80F07A
:1017D0009A424FEA50100FDD824250DC012D0DD1AC
:1017E000002240F601512E4803F09CF801221FE030
:1017F0009A424FF00000EFDC012D12D04C68012C12
:1018000042D04C68022C00D101309A421DDD824248
:101810003CDC022DE4D08C68012C1BD101339A42B0
:101820001EDC012240F601511D4803F07BF8012225
:1018300040F602511A4803F075F8BDE8384001221D
:1018400040F60251164803F06DB8022DE9D08C68BD
:10185000012CE3D08968022908BF01309A42E0DDFB
:101860008242BDDD002240F601510D4803F05AF8D6
:101870000022DDE70128D4D00228B1D0F2E7012D03
:10188000F0D04C68012CBCD10133BEE7022DDED173
:10189000E8E700BFD401002058920020D8010020C2
:1018A00064920020174A08B5D2F8F03013F0010313
:1018B0000BD1D2F8FC00144940F08070C2F8FC0053
:1018C0004B600B6843F001030B60104A104911484C
:1018D000FFF7DCFD00B100BE4FF4FA6366210E4A4B
:1018E0000E48FFF709FE00B100BE0D48FFF712FFDA
:1018F0000F20FFF739FFFFF7A3FEFFF72BF9FFF7E4
:1019000025FAFCE700ED00E0001000E08117000080
:10191000CCB4000040AF000018730020A492002057
:101920003CB50000022800D07047024B02485968BD
:1019300003F0D2B8F4AE00006492002008B5FFF7BF
:10194000B1FF002008BD00BF0346012200201A712C
:10195000704700BF0346D3ED057A27EE800A0020CA
:1019600083ED070A704700BF03460868C3F82801E3
:101970000020704700B58E4600F1800CBEE80F00D5
:10198000ACE80F00BEE80F00ACE80F00DEF8003056
:101990000020CCF800305DF804FB00BF03460022B5
:1019A000D3F80CC000B5D3F810E0C1F800C0C1F8FE
:1019B00004E0D3F818C0D3F838E00A74C1F80CE09A
:1019C000C1F808C01B7A1046012B08BF1A460A74DA
:1019D0005DF804FB2DE9F04F4FF000088D692DED07
:1019E000028BA0F8048080F8A080A0F80780B5F8EA
:1019F000803080F8258007EE903A95ED067A9FEDCD
:101A0000548ADFED548AF8EE677A0446002667EEC2
:101A1000887A27EE287A05F1800A05F1600B95EDAA
:101A2000010A816600F16C0283B0C6608661C0F86D
:101A30008C6006620F4650465946C4ED057A84ED27
:101A40001F7A06F053FD95ED017AD5ED1C6AD5EDB0
:101A5000047ADFED415A67EE266A67EE277AB0EE28
:101A6000006A26EEA57A67EEA57A36EE474A77EE4B
:101A7000065A77EE866A36EE676A95ED060AC7EE75
:101A8000254A87EEA65A84ED307AC4ED2B7A84EE8F
:101A9000257AC6EE267A5146F7EE000AC4ED324AA0
:101AA00084ED2D5A84ED317AC4ED2C7A20EE280A8B
:101AB00004F14800C4F8B860C4F8BC60C4F8A4607D
:101AC000C4F8A86006F0E6FB05F1440984F84480F8
:101AD00095ED070A484606F081FCD5ED0D2A95EDF7
:101AE000013A95ED0C2AD5ED1A1A95ED1B1AD5ED94
:101AF000250A95ED240A484662EE882AB5F880103A
:101B000006F076FC95F82330012B15D0BB684BB15D
:101B1000D3E90112186812689047BB689A68186880
:101B20005368984700200D4B84F82400236003B0CD
:101B3000BDEC028BBDE8F08F04F1CC00019006F003
:101B4000E3F995ED010A5946019806F001FADDE73F
:101B50005077D63DD7B3DD3FDB0FC9404350534DDF
:101B60002DE9F0418C692DED028BB4F8803094EDB5
:101B7000067A07EE903A9FED448ADFED448AF8EE4C
:101B8000677A054627EE287A67EE887A04F180079F
:101B900004F16008816600F16C0294ED010A41468F
:101BA000384685ED1F7AC5ED057A06F09FFC94ED69
:101BB000017AD4ED1C6AD4ED047ADFED355A67EE74
:101BC000266A67EE277AB0EE006A26EEA57A67EEFF
:101BD000A57A36EE474A77EE065A77EE866A36EEF3
:101BE000676A94ED060AC7EE254A87EEA65A85ED88
:101BF000307AC5ED2B7A84EE257AC6EE267A394600
:101C0000F7EE000AC5ED324A85ED2D5A85ED317AA1
:101C1000C5ED2C7A20EE280A05F1480006F03AFBC3
:101C2000002304F1440685F84430304694ED070A59
:101C300006F0D4FBD4ED0D2A94ED013A94ED0C2A74
:101C4000D4ED1A1A94ED1B1AD4ED250A94ED240A4A
:101C5000304662EE882AB4F8801006F0C9FB94F88A
:101C60002330012B04D0BDEC028B0020BDE8F081B5
:101C700005F1CC0094ED010A414606F069F9BDEC8E
:101C8000028B0020BDE8F0815077D63DD7B3DD3F11
:101C9000DB0FC94038B50023856E0446AA6903717D
:101CA00080F8243092F82330012B08D0AB681BB1A8
:101CB0009A681868D36A98470020206038BDCC30F5
:101CC00006F038F9F2E700BF38B5002204460023D9
:101CD000816E48308D69E360A361C4F88C30236263
:101CE000C4F8B830C4F8BC30C4F8A430C4F8A83084
:101CF000A28084F8A020A4F8072084F8442006F0ED
:101D00008BF905F1440006F06FFB95F82330012BA9
:101D100003D0002084F8240038BD04F1CC0006F084
:101D200009F9002084F8240038BD00BF70B52DEDFE
:101D3000028B0023044684B0CDE90233836E94ED18
:101D4000270AB8309D6906F0BBFBF0EE407A04F13B
:101D5000A40094ED230AC4ED0B7A06F0B1FB237ABC
:101D600084ED080A012B10D195ED057ADFEDCE6ADE
:101D7000F0EEC07A27EE267AB4EEE77AF1EE10FAAA
:101D8000C4BF84ED060A84F8253094F8A030012BF6
:101D900023D0002384F8253095F82130012B08D07A
:101DA0000020029A039BE260236104B0BDEC028B29
:101DB00070BD94F84430012BF2D104F1480094ED49
:101DC000220A019006F0B2FA94ED080A019802AADC
:101DD00004F1800106F02AF9E2E7A26E63799269C4
:101DE000C3B3022B1BD09FEDB50AD2ED030ADFED82
:101DF000AE7A60EEA70A06F051FBA36E9E6994F8D6
:101E0000253084ED060A012B2CD0227A032A00F219
:101E10008B81DFE812F0D200AD005B00F60094ED9C
:101E2000060A94ED077ADFEDA06A37EE407AD2ED2C
:101E3000027A67EEA67AF0EEC76AC7FEE67A17EE78
:101E4000103AF0EEE77A002BB8BFF1EE677A30EE89
:101E5000270ACAE7E379012BC5D102239FED970A30
:101E60006371C2E7032294ED047ADFED907A227267
:101E7000D6ED0B6A67EE277A67EEA67A37EE677AB9
:101E8000C4ED0A7A67EE877AF5EEC07AF1EE10FAC1
:101E900040F2EB808DED037A0023E37196F8212068
:101EA000012A01D184F84430D4ED037AD6ED096AD1
:101EB00096ED0C7A77EEA67AF4EEC77AF1EE10FA88
:101EC00053DB0123F0EE477AE3714EE094ED272ACD
:101ED000D4ED0D1A94ED031AD4ED260A94ED250ADB
:101EE00006F030FBDFED727AD6ED060A60EEA70A47
:101EF00006F0D4FAD4ED087AF5EEC07AF1EE10FAD5
:101F000096ED107AC0F2B6809FED6A6AD4ED276A2A
:101F100027EE067AF4EEC76AF1EE10FA40F2B680C8
:101F2000A26E94F825309669012B8DED030AB3D08B
:101F300096F82120012A04BF002384F84430E37975
:101F4000042B10D801A151F823F000BFA91E0000F6
:101F50004320000023200000611F0000611F0000DB
:101F6000012A00F0AD80DFED557ACDED027A10E761
:101F700094ED238A94ED1D7A30EE488AD4ED1E7AD2
:101F8000E8EE077AD4ED1F0AB0EE670A84ED1B8AEB
:101F9000D4ED1C8A06F082FAD6ED060ADFED447A0B
:101FA00084ED1E0A60EEA70AA8EE280A06F076FA6B
:101FB000A36E9E6994F82530B6E796F82030B0EE0F
:101FC000C08A012B00F08980D6ED0D7A9FED367A1C
:101FD00067EE877AB4EEE78AF1EE10FA0ADB96F83C
:101FE0002230012B00F091800123237296F82030DB
:101FF000012B7DD0A36E9FED310A9E6994F82530A8
:1020000092E794ED0A7AD4ED047A77EEC77A27EE58
:10201000877AB5EEC07AF1EE10FA26D9CDED037AC3
:1020200086E7D4ED037A96ED0A7A77EEC77AF5EE75
:10203000C07AF1EE10FA98D80323DFED207AE3712D
:1020400093E7D4ED066A96ED0D7A9FED176AF0EEF0
:10205000E66A27EE067AF4EEC76AF1EE10FAD4EDDE
:10206000037A82DB0223E3717FE700229FED130AEC
:10207000227259E79FED106AD4ED276A27EE067A9F
:10208000F4EEC76AF1EE10FAFFF64AAF0120002124
:10209000A26E2072C4ED067A84ED1E0A94F82530F3
:1020A0009669216340E700BF5077D63D0000803B32
:1020B000D7B3DD3F35FA8E3C35FA8EBC0000000008
:1020C00084F8442004F1480006F042F90128B3D115
:1020D00004235FED067AE37147E7F0EE400A06F16C
:1020E000440094ED250A06F039F984ED0E0A6BE7F9
:1020F00006F1440006F078F91FED100AA36E9E6900
:1021000084ED0E0A94F825300EE70223237294ED35
:102110000B1AD6ED0C0A96ED0F0A06F1800006F0B8
:1021200029FA84ED0D0A61E71FED1C0AFCE600BFE9
:1021300030B5046883B0D4E900531A693AB101217B
:102140005B69684600938DF80410904763681968CE
:1021500019B1A36820689B6998472B79012B03D19B
:10216000A3682068DB6998476368596821B1A36850
:1021700020681B6A984763681A6932B102215B695B
:10218000684600938DF80410904703B030BD00BF3F
:1021900038B50D460B680446D3E901121868126879
:1021A00090476B68D3E901121868126890470020C5
:1021B00000230B4A84F82C0084F840006060C4F8C7
:1021C00084502260E360608123616361A3612362C4
:1021D0006362A36223636363A363E36338BD00BFE9
:1021E00044F5D40410B50446D0F884301B689A68CE
:1021F000186853689847D4F884305B689A68186800
:10220000536898470020002384F82C0084F840008D
:10221000E36023616361A36123626362A36223635A
:102220006363A363E363206010BD00BFD0F8843014
:10223000186818B1836800681B691847704700BFA9
:1022400003469B7900200B70704700BF002310B538
:10225000D0F884208CB050680C46069328B183686F
:1022600001A91B6A00689847069B23600CB010BD4B
:10227000002310B5D0F884208CB050680C4605932C
:1022800028B1836801A91B6A00689847059B2360F1
:102290000CB010BD06207047D0F8842010B504465D
:1022A000106828B182680068D3689847D4F8842001
:1022B00053681BB19A681868D3689847C0B210BDBC
:1022C000D0F8842010B50446106828B182680068F0
:1022D00093689847D4F8842053681BB19A681868AB
:1022E00093689847C0B210BD00207047D0F8843082
:1022F00010B51A6832B10446936810689B68984715
:10230000D4F884305B681BB19A6818689368984762
:10231000002010BD062070472DE9F0412DED028B05
:102320009FED5C8AD0F8843090B05B680C465A68A8
:10233000D3F800809B68176805468DED038A4046F8
:102340001B6A05A99847002F00F09180BB68694679
:102350001B693868984798F858300646012B4BD0CF
:10236000F0EE487AB0EE485AF0EE486AD5F884307C
:102370009DED036A1A699DED097AD2ED025AF4EED9
:10238000E57AF1EE10FA40DCF0EEE66AF4EEE65A99
:10239000F1EE10FA39D4B0EEC55AB4EEE55AF1EECA
:1023A00010FACBBF4FF4817102214FF480730023E8
:1023B000D2ED036AD2ED057AB4EE666AF1EE10FA58
:1023C000B4EEE76AC8BF0B46F1EE10FAB0EEC77A7A
:1023D000D2ED047A1ED4F4EEC77AF1EE10FA21D4CD
:1023E000AA8813439BB2AB80238013BB304610B046
:1023F000BDEC028BBDE8F081DDED006A9DED025A77
:10240000F0EEE67A76EE856AB0E74FF481714FF42C
:102410008073CDE7B4EEE77AF1EE10FA43F0800373
:102420009BB231DDAA88134343F004039BB2AB8017
:1024300023800022AB796A81022B20D8164A1749E3
:102440001A44063351F82310937902222846EB717F
:102450002A72884718B16B8943F004036B813046B8
:10246000EB79AB7110B0BDEC028BBDE8F081064694
:10247000F0EE487AB0EE485AF0EE486A76E702236A
:102480000749AA716B81E0E7AA8813439BB2AB802E
:102490002380CEE70000000070B8000040B80000C4
:1024A000A5240000D0F8843010B51A6832B1044673
:1024B000936810689B689847D4F884305B681BB1B8
:1024C0009A68186893689847002010BD002210B5DC
:1024D00083790446022B428114D80D4A0D491A44CF
:1024E000033351F823300121D27820462172E27162
:1024F000984718B1638943F004036381E3790020AE
:10250000A37110BD02218271034B0A464181ECE7A1
:1025100070B8000040B80000A5240000002310B5EA
:1025200082790446022A438111D80C490C48895CFF
:1025300050F8222020462372E171904718B1638938
:1025400043F004036381E3790020A37110BD0220EE
:10255000A37101460346034A6081EBE770B80000AF
:1025600040B80000A524000010B504460022808871
:10257000A3790143022BA180628114D80D4A0E4831
:102580001A440633917950F8233002222046E17133
:102590002272984718B1638943F004036381E37999
:1025A0000020A37110BD0220044B0146A27160817E
:1025B000EBE700BF70B8000040B80000A5240000A1
:1025C00083880BB900207047002210B58379044638
:1025D000022B428126D8164A16491A44093351F86B
:1025E00023300321527A20462172E271984718B1B4
:1025F000638943F00403638100220023E17984F8B6
:102600002C20A17184F840200020E36023616361E5
:10261000A36123626362A36223636363A363E363CF
:10262000A28010BD02218271034B0A464181DAE784
:1026300070B8000040B80000A524000010B5026882
:1026400003791168022BD1F8842082B0146905D077
:10265000032B1FD0012B18D002B010BD4B6B886B21
:102660008B6491F840300C6B81F854305368D1F88A
:102670003CC09A68C86418681369C1F850C04C64BB
:10268000443102B0BDE8104018472368002BE3D066
:10269000032203E02368002BDED004228DF80420FF
:1026A000626868460092984702B010BD70B5036832
:1026B00005791C68012DD4F8843082B01E690BD0D6
:1026C000022D07D133682BB18DF80450726868462B
:1026D0000092984702B070BD5B6804F158019A6897
:1026E0001868136A9847E36DA26D2361636F216ECA
:1026F000236294F88030E260626E84F82C30336894
:102700006161A261A16FE26F6162A262002BDBD105
:10271000E0E700BF034600B5D1F800C0D2F800E002
:10272000496852680020C3F874E0C3F87CC0C3F85D
:1027300080109A675DF804FB0346002083ED210AB0
:10274000C3ED220A704700BF034600201976704788
:102750000346D3F804C00020C1F800C09B68136092
:10276000704700BF062070470620704738B50B46FB
:1027700004464D6800F11C0295ED050A2946C0F893
:102780008C3005F1180005F061FB284695ED050A2F
:1027900004F1680105F09CFB002038BDF0B503682A
:1027A000174E83B0B34227D004464D6800F11C0297
:1027B00005F11807C0F88C1039461046019205F053
:1027C00025FB019A95ED050A3846294604F168076C
:1027D00005F03CFB95ED050A3946284605F078FBE7
:1027E000384605F08DFB00224FF4807300202660F0
:1027F0006261238303B0F0BD0E2003B0F0BD00BFC3
:102800005345414D10B504461C3005F0F5FA04F16E
:10281000680005F075FB00202076206010BD00BF29
:1028200010B504461C3005F0E7FA04F1680005F025
:1028300067FB4FF480732383002010BD2DE9F04126
:1028400004461F46D0F88C30D0ED201A90ED1F1AA8
:1028500082B0D0ED1E0A90ED1D0A1C30D3F8048022
:102860000D461646019005F045FAD4ED200A019870
:1028700094ED030A05F0A8FAF0EE407AD4ED1F0AB1
:10288000C4ED017A019894ED030A05F0A9FAD4ED9C
:10289000017A84ED020A87EE800A05F0AFFE84ED2E
:1028A000040A87ED000A237E012B2ED001236376D4
:1028B00098F8003094ED217A012B04BFD4ED227AF0
:1028C00037EE677A84ED037A86ED007AD4ED057AE7
:1028D00098ED056ADFED156AE6EE077AF4EEE67A22
:1028E000F1EE10FA09DB77EEE67A0020C4ED057A06
:1028F000C5ED007A02B0BDE8F081F5EEC07AF1EEE8
:1029000010FA48BF77EEA67AEFE7637E012B04D179
:102910000022D4F884306276236704F10C0104F1BC
:10292000680005F0C1FA94ED037ACDE7DB0FC940EA
:102930000620704706207047002238B50023056E38
:1029400080F8242080F85C20296804468360C360F6
:10295000036143618361C36103628362C362036392
:1029600043638363C363C28419B1CB680868DB6ABD
:1029700098472B7B012B08D02B691BB19A681868EC
:10298000936998470020206038BDAB68002BF3D0D6
:10299000DA681868D36A9847EEE700BF034600205C
:1029A00083ED060AC3ED070A83ED081A704700BFDE
:1029B000036E1B7B012B31D0D0ED026A90ED0A5AD9
:1029C00090ED037AD0ED0B5AD0ED047A90ED0C6ABD
:1029D00076EEC56A37EE657A77EEC67AC1ED006AA3
:1029E00081ED017AC1ED027AD0ED147A90ED155A9D
:1029F00090ED136A90ED117AF0EE006ADFED0C5A5B
:102A000077EEC57A27EE257AE6EE667A67EE277AC4
:102A100043690020C1ED047ACB607047D0F808C04C
:102A2000C2680369C1F800C04A608B60DCE700BF80
:102A30003FC61C3F034600210022084683F82410AD
:102A4000D9845A639A63DA63704700BF036ED1ED8D
:102A5000006ADB69D1ED017A9B7F012B53D091EDA8
:102A6000027AD0ED125A90ED166AA5EEA66A82EDB2
:102A7000006AD0ED125AD0ED166AE5EEA76AC2EDF3
:102A8000016AD0ED125AD0ED167AE5EE877AC2EDE2
:102A9000027A90ED147AB4EEC76AF1EE10FAD0ED36
:102AA000155A10DDF4EEC76AF1EE10FA82ED007AE5
:102AB00015DDF4EEC77AF1EE10FA82ED017A1ADD37
:102AC00082ED027A7047B4EEE56AF1EE10FAF4EEA8
:102AD000C76A48BFC2ED005AF1EE10FAE9DCF4EE25
:102AE000E56AF1EE10FAF4EEC77A48BFC2ED015A7A
:102AF000F1EE10FAE4DCF4EEE57AF1EE10FA48BFFC
:102B0000C2ED025A7047F4EEE76AF1EE10FA91ED69
:102B1000027AD4BFF0EE675AF0EE665AB4EEE57A68
:102B2000D4BFB0EE666AB0EE676AF1EE10FA13DC5D
:102B3000B4EEC67AF1EE10FA54BF75EE865A77EE0F
:102B4000255AB6EE006A25EE866A76EEC66A77EEFC
:102B5000C67A37EE467A84E737EE066AF6EE005A12
:102B600026EE256AF1E700BF2DE9F04F2DED028B2F
:102B70000023054693B0CDE90433CDE90733039331
:102B80000693036EB0F804A01F69D3F81C807B681D
:102B9000C4885E6809A9B36830681B6A9847B7EEB5
:102BA000008AD5ED057A88EE277AAB69C5ED117AF2
:102BB0000393EB6985ED127A04932B6A03A92846E7
:102BC00006AA0593DDF82C90FFF740FF07EE90AAC8
:102BD000B8EEE77A07EE904A9DED086AFAEEEF7AD2
:102BE000DDED066ADDED075A78EE666A78EE655A25
:102BF00038EE468AB0EE676AA7EE266AF0EE676A9C
:102C000040F20323E7EE256ABCEEC66AE7EE087AD7
:102C1000A5F84030BCEEE67A16EE103AFCEEE77A04
:102C20001FFA83FC17EE103A99B217EE903A8C45D2
:102C30009BB280F28480624601208C464FF0020AEB
:102C4000114685F841009C4576DA6246D6469C4698
:102C500085F840A013464FF0030A994209DA0C4662
:102C60007246194685F841E085F8400086462346BD
:102C70001046D8F82420CC1A944264DAD518A94515
:102C8000D8BF09F1FF35C5EB4101ACEB0504A24209
:102C900050DD02EB050BD945D8BF09F1FF3BCBEB6B
:102CA0004C0C0129B8BF0121D8F82840BCF1010F14
:102CB000A2EB0404B8BF4FF0010CBEF1020FA5EB6C
:102CC00004028846ABEB04045DD0BEF1030F3FD095
:102CD000BEF1010F53D0002319469E4602283BD077
:102CE000032848D0012841D0984689467046BAF159
:102CF000020F38D0BAF1030F27D1E0465B46CDE989
:102D00000E30BB68CDE90CE11B690CA9CDE9109828
:102D1000386801929847019A0021306802F01EFB42
:102D200022460321306802F019FB13B0BDEC028B80
:102D3000BDE8F08FE346B4E74FF0030E8DE70220C5
:102D40004FF0010A7FE70D469FE76046DE46D6E773
:102D5000002102288E46C3D1BAF1020FC14629468E
:102D600098467046C6D1E1465946C8E74046AE4649
:102D700089469846BBE72B4689467046B7E79E468C
:102D800000231946AAE7194600239E46A6E700BF7E
:102D900070B504686F4B22688AB09A4201D00AB0BD
:102DA00070BD0379002BFAD1266EADF8023033687E
:102DB0000DF10202D96818688B69F179F5699847B5
:102DC00033680121186801AA03F0F0F9D4ED0A7AFA
:102DD000FCEEE77A94ED0C7ABDF80230BCEEC77ACF
:102DE00006EE903A17EE903ABDF808109BB2C1F388
:102DF0000B01CB1A07EE903A17EE103ABDF80C20F3
:102E00009BB2C2F30B02D31A07EE103A95ED045AA7
:102E1000D5ED024A95ED086A95ED064AD5ED033ADF
:102E2000F8EE666AB8EEC77AC4EE855A66EE846A32
:102E3000C3EE854AF8EEE77A36EE477A66EEA46A84
:102E400067EEA57A27EE257AC4ED056A77EE876AE4
:102E500094F84030F1EE666A022B4CD0032B62D01E
:102E6000012B55D0DFED3C6AB0EE667AF0EE667A63
:102E700094F82430012B37D007EE901A07EE102A71
:102E8000F8EE677AF8EE476A216EC4ED046A4A6983
:102E9000C4ED027A92B101238DF804308B6901A848
:102EA00002939047226E536933B102218DF80410CA
:102EB000926901A80292984794F82430012B16D009
:102EC00000232046A361E3612362FFF74DFE226EDB
:102ED0005369002B3FF463AF03218DF8041092690E
:102EE00001A8029298475AE784ED037ACCE720467E
:102EF000FFF73AFEEBE794F84130B0EE676A032B38
:102F00001ED0F0EE667AF0EE476AB0EE467AAFE792
:102F100094F84130022BABD1B0EE476AB0EE667A3E
:102F2000F0EE466AA4E794F84130B0EE676A012BF0
:102F30000BD0F0EE477AB0EE667AF0EE466A97E78D
:102F4000F0EE477AB0EE467A92E7F0EE667AF0EE6F
:102F5000466A8DE74152444D00000000F0B500275D
:102F600044688FB0256E08972B68EE690997002B8F
:102F700000F08C80DA6818682979936908AA984764
:102F80002B7B032B54D0ADF822702B68A979DA681B
:102F90001868936909AA98472B68E979DA6818686C
:102FA00093690DF126029847BDF8203006EE903A5D
:102FB000BDF82230F8EE666A07EE103ABDF824300C
:102FC000B8EE477A07EE903ABDF82630F8EE674A39
:102FD00006EE103AF8EE465A96ED044A96ED035A7C
:102FE000D6ED057A96ED023AD6ED063A85EE046AFC
:102FF00077EEE66A83EE045A37EEC77A26EE236A46
:1030000077EEE47A66EE856A27EE057A67EE857AD2
:1030100026EE256A4C4B2268C4ED026A9A4284ED82
:10302000037AC4ED047A84ED056A0AD00FB0F0BDCE
:103030002B686979DA68186893690DF1220298475C
:10304000A3E7226E536983B1012192696846019218
:103050008DF800109847226E536933B19269684623
:10306000019202228DF80020984794F82430012B19
:1030700015D0236E5A69002AD8D003219B6968466F
:1030800001938DF8001090470FB0F0BDDFED2F5A7F
:10309000F0EE654AB0EE657AF0EE656A9CE7B7EE51
:1030A000005AD4ED057A85EE277A0023A169E269FA
:1030B000256AC4ED117A204684ED127A02910392BA
:1030C00002A905AACDE9053307930495FFF7BEFCD5
:1030D000A3889DED077A06EE103AE388DDED066AD7
:1030E00007EE903ADDED055AFAEEEF7AB8EEC66AD1
:1030F00075EE666A75EE655A35EE475AB0EE677A38
:10310000A6EE267AF0EE676AE6EE256AFCEEE66A3F
:1031100016EE902ABCEEC77AE6EE057A236E92B2DE
:103120001869089217EE102AFCEEE77A92B209921B
:1031300017EE902A92B20A9200289BD0836808A9C1
:103140001B690068984794E74152444D0000000015
:1031500030B5CD694FF47A73D5ED0E7AF5EEC07ABD
:10316000044628886A8800FB03F3B3FBF2F3F1EE10
:1031700010FAAA884FEA530312FB00F204F1440C40
:1031800005F12C0E2166E280A380BEE80F00ACE8BA
:103190000F009EE807008CE8070006DDB7EE007A16
:1031A000F4EEC77AF1EE10FA14D9D5ED0F7AF5EEF8
:1031B000C07AF1EE10FA0BDDD4ED146AB6EE007AA7
:1031C000C4ED157A77EEA67A67EE877AC4ED167AA3
:1031D000002030BDD4ED156AB6EE007AC4ED147A45
:1031E00077EEA67A67EE877AC4ED167ADDE700BF40
:1031F000838890ED167A06EE103AC388F7EE006ADF
:1032000007EE903AB8EEC66AFAEEEF7A76EEC76A43
:10321000E6EE267AFCEEE77A036E10B51A6917EE31
:10322000903A86B09BB2044680ED067A80ED077A2C
:1032300080ED087ACDE90033029322B193686946A4
:1032400010681B69984700230020A360E360236196
:103250006361A361E361236284F82400E084A362D4
:10326000E36223636363A363E36384F85C0006B0F3
:1032700010BD00BFF0B590F824600D4687B0DEB9F0
:10328000036E04461A7BDF69012A19D1BB8BC18CFE
:1032900099423ED290ED0D7AD0ED0F7A90ED026A10
:1032A000D0ED046A37EE067A77EEA67A80ED0D7AD5
:1032B000C0ED0F7A0131C18400202E7007B0F0BD3F
:1032C0001A698388B7EE007A06EE903AC38890EDCB
:1032D000166A07EE903AF8EEE66AFAEEEF7A37EE03
:1032E000467AE6EE877AFCEEE77A17EE903A9BB2E2
:1032F000CDE9003302931AB3936869461B691068DD
:10330000984794F82430DBB11E4600202E7007B099
:10331000F0BD07EE903A90ED0D7A90ED0F6AF8EE61
:10332000E77AC7EE276A86EE277AC0ED0A6A80ED53
:103330000C7A80F82420164600202E7007B0F0BDCD
:10334000BB8BE28C9A421AD2D4ED0D6A94ED0E7AC0
:10335000D4ED0F7A94ED025AD4ED035A94ED046A39
:1033600076EE856A37EE257A77EE867A0132C4EDFD
:103370000D6A84ED0E7AC4ED0F7AE2849CE707EEC5
:10338000903AB7EE005AF8EEE77A94ED0D6AC5EE82
:10339000275AD4ED0E6A94ED0F7A012326EE256AA2
:1033A00066EEA56A67EE257A1E4684ED0A6AC4EDCC
:1033B0000B6AC4ED0C7A84F824307DE770B5754B48
:1033C0000268CE699A4286B000F0E1804FF47A7EBE
:1033D00032880D460166B188B6F802C011FB02F1D1
:1033E0000EFB02F20446B2FBFCF20020002384F83C
:1033F0002400520804F1440C06F12C0EE180E08414
:10340000A360E36023616361A361E3612362A3625C
:10341000E36223636363A363E363A280BEE80F00F8
:10342000ACE80F009EE807008CE80700D6ED0E7AA6
:10343000F5EEC07AF1EE10FA07DDB7EE007AF4EEA1
:10344000C77AF1EE10FA40F28680D6ED0F7AF5EEEB
:10345000C07AF1EE10FA0BDDD4ED146AB6EE007A04
:10346000C4ED157A77EEA67A67EE877AC4ED167A00
:103470002B69BBB1D3E901121868126890472B7B06
:10348000012B44D12A6904F1880351682246496816
:103490008E680868B66A4049B0472B699A68186810
:1034A000536898472B7B012B62D02B68002B29D0C7
:1034B000DA6859681268186890472B68D3E90212D5
:1034C0001868526890472B685968DA681868496923
:1034D000126A90472B7B012B08D02A6804F16803FD
:1034E000D16810688E6A22462C49B0472B6859680B
:1034F000DA681868126A496990472B68DA681868B0
:10350000936898470020234B236006B070BDA388C2
:10351000B7EE007A06EE903AE38894ED166A07EE6D
:10352000903AF8EEE66AFAEEEF7A37EE467AE6EE91
:10353000877AFCEEE77A236E1A6917EE903A9BB20F
:10354000CDE900330293002AA7D09368694610683A
:103550001B699847A1E7D4ED156AB6EE007AC4ED71
:10356000147A77EEA67A67EE877AC4ED167A6CE75E
:10357000AB68002B99D0DA685968126818689047D0
:10358000AB68D3E902121868526890478DE70E20A5
:1035900006B070BD4152444D912D00005D2F0000DA
:1035A0000346012200201A71704700BF00B58E4605
:1035B00000F1F80CBEE80F00ACE80F00DEF80030B8
:1035C0000020CCF800305DF804FB00BF034600206B
:1035D00083ED040AC3ED050A704700BF03460020CF
:1035E00083ED0C0AC3ED0D0A704700BF034600B51A
:1035F000D1F800C0D1F804E0896800201962116890
:103600005268C3F81CE0C3F818C0D9629A645DF828
:1036100004FB00BFC36D30B51B69D0ED0C6A9D6B18
:103620009FED1A6A2D880C4607EE105AB8EEC77A3D
:10363000C6EE877A67EE867A416A826AD0F80C51C4
:1036400021606260416B826C6161A260C16C826BBF
:10365000C4ED036AC4ED047AE161A261416D026DBB
:103660006162226290F8582083B084F828201B7889
:10367000012B08D1AB682868DB6A01A99847BDF81F
:103680000430A4F82930002003B030BDEBC9184144
:10369000034693ED087AD3ED077A10B4D3F834C01B
:1036A000164C93ED066AC4F814C077EEC77A94ED11
:1036B000047AC4F814C0D4ED056A9FED115ADFED09
:1036C000115A27EE057A66EE856A67EE254A27EEDF
:1036D000877A67EEA67A66EEA56AE6EE247AA6EE0B
:1036E000667AC3ED097A83ED0A7AC1ED007A9B6AA6
:1036F00000205DF8044B1360704700BF00100240CB
:10370000F304353FD7B3DD3F70B504460268374B4D
:103710000D699A42D1E90060C4E9430664D04FF0D4
:10372000000C84F804C084F858C095ED0C0A002001
:10373000DFED2F7AE165696B20EE270A04F174034F
:1037400004F16002A060E060206160616062A062DC
:10375000E06220636063E063206460642066606709
:10376000E066C4F880002167C4F88410D5E90E0132
:1037700004F022F96968AA68EB682869C4F888101F
:10378000C4F88C20A9696A69C4F89030EB69C4F860
:103790009400286AC4F898206A6AC4F8A030AB6A1A
:1037A000C4F8A400C4F89C10C4F8A820C4F8AC3035
:1037B00095F82C3004F1880084F8F43004F02AF9EC
:1037C000D4F8103123B1D3E9011218681268904778
:1037D000D4F80C3123B1D3E901121868126890476C
:1037E000024B0020236070BD0E2070BD4350434D3E
:1037F0006F12833A0023002210B504468360C36031
:103800000361436143628362C36203634363C363CF
:103810000364436403664367C366C0F88030027183
:1038200080F85820883004F0F5F8D4F810311BB136
:103830009A68186853689847D4F80C311BB19A6895
:103840001868536898470020206010BD10B50446E2
:103850000869DFED0D7A90ED0C0AD0F834C020EE47
:10386000270A04F17403E16504F16002D0E90E0156
:10387000C4F870C0C4F884C004F09EF804F1880055
:1038800004F0C8F8002010BD6F12833A0022D0F86F
:10389000103110B5044602711BB19A68186893681C
:1038A000984700230022A360E360236163616362A1
:1038B000A362E36223636363E36323646364236655
:1038C0006367E366C4F8803004F18800227184F8ED
:1038D000582004F0E1F8D4F80C311BB19A6818684C
:1038E00093689847002010BD90ED093AD0ED047A16
:1038F000D0ED1B6A77EEC37A90ED1A5AE7EE856A2F
:103900000023F0EE665A90ED196A30B585B0CDE926
:1039100001330393C36D90ED1C7A67EE866A1A69D2
:10392000C0ED187AF0EEE57AB4EEE77AF1EE10FA2F
:1039300004460D4609D515EE903AB0EEC77A002B35
:10394000B8BFB1EE477AF0EE475AD4ED0A4A94ED8B
:10395000057AD4ED207A37EE647AD4ED1F3AE7EE9B
:10396000237A94ED215AB0EE676AF0EEE77AB4EE6E
:10397000E75A94ED1E4AF1EE10FA84ED1D7AC4ED7B
:103980001B5A27EE047A09D516EE103AB0EEC55A46
:10399000002BB8BFB1EE455AB0EE456A936B94ED7B
:1039A0000C4AD3ED027AD3ED043AD3ED032AE7EEC5
:1039B000833A64EEC44AF0EE667AE4EEA27A94EDBD
:1039C000125A77EEA56AA4EE237AF4EEC56A77EE72
:1039D000067AF1EE10FA84ED206AC4ED026AC4EDB5
:1039E000037A40F38A80DFED6E7A84ED025AC4EDEB
:1039F000037A85ED035AC5ED047A92F82D30012B38
:103A000000F0938094ED0D5A664B94ED027AD4ED5C
:103A1000031A83ED055AD3ED046A83ED055ADFEDF1
:103A2000627AD3ED055A26EEA72A25EEA76A35EE6F
:103A3000C21A35EE823A76EE865A76EE666A65EE00
:103A4000A15A26EE616A66EEA16ADFED584ADFED03
:103A5000583AA7EE026AE7EE015AE7EE436A26EE0D
:103A6000236A65EEA45A66EEA46A94ED044AD4ED86
:103A7000052A84ED0F6AC4ED105AC4ED116A83ED76
:103A8000055A93ED047A83ED055AD3ED056A67EE86
:103A9000275A66EEA77A36EEE55A36EEA56A77EE35
:103AA000276A37EEC77A66EEA26A67EEE27A27EEF9
:103AB000227AE4EE257AE4EE056AA6EE447A67EE11
:103AC000A37A66EEA46A27EE247A01AA04F13C01E7
:103AD00004F1880094ED0B0ACDED017ACDED026A78
:103AE0008DED037A03F0DEFF0020E16B226C636C46
:103AF00029606A60AB6005B030BDB1EE457AF4EE86
:103B0000C76AF1EE10FA2BD5DFED257AB0EE475AF1
:103B100084ED027AC4ED037A85ED035AC5ED047A8B
:103B200092F82D30012B7FF46DAFDFED226A92ED1C
:103B30000C7A94ED0D5A24EE264ADFED1F7AA7EE9B
:103B4000045AB4EEE75AF1EE10FA25DAB5EEC05A8F
:103B5000F1EE10FA48BF35EE275A84ED0D5A53E7BF
:103B600026EEE67AA5EE057AB0EEE76AF1EEC75AE0
:103B7000F4EEC65AF1EE10FA09D517EE903AF0EECF
:103B8000E55A002BB8BFF1EE655AF0EE657AC4ED48
:103B9000037AB0EE665A2CE735EE675ADDE700BFD0
:103BA00000000000001002403ACD133FF304353FFF
:103BB000F304B53F6F12833ADB0FC9402DE9F0479C
:103BC0002DED048B03784468022B94B017D0032B9F
:103BD00006D0012B04D014B0BDEC048BBDE8F087F7
:103BE00061688A68002AF6D0C96801A88DF8083093
:103BF0000191904714B0BDEC048BBDE8F0872568B7
:103C00000AA9D5F81061EA6DB36830681B691769B5
:103C100098479DED0A9ADDED0C8A0E9BDDF8348005
:103C2000AB647B78022B08BF39EE288A2B790CBF56
:103C3000B1EE488A9DED0B8A012BCCD1B368306878
:103C40005B6905F15801984795F85830012BC2D1AE
:103C50006268936833B1D26801A8019202228DF89C
:103C600008209847AF6CA368CDF80C80DB6903AAE5
:103C700007A904978DED079A8DED088ACDED098A85
:103C800028469847A36828465B6A05F1280205F193
:103C9000240198472768FB6DD7F80C811B691B78B6
:103CA000002B52D17B6AFA680593BB6AB968069308
:103CB000D8F8083010920F9197F808115B69D8F87E
:103CC00000009847D8F80830D7ED410A97ED400A30
:103CD0001B69D8F800009847D8F808300DF13C0966
:103CE0004A46DB6805A9D8F800009847D8F808309C
:103CF00007F13002D3F81CA007F1340107F1540397
:103D0000D8F80000D047D8F80830D8F800009B6AEF
:103D100007F1500207F14C019847A368D5ED3F0A1F
:103D200095ED3E0A28465B699847A36849462846B0
:103D30009B6A9847B3689DED111ADDED100A9DED61
:103D40000F0ADB683068984745E7012B12D1D8F895
:103D50000830D8F800009B699847D8F80830D8F8A0
:103D6000000007F13002D3F81C8007F1340107F19D
:103D70003803C0470DF13C09CFE700BFF8B5C36970
:103D80001546DA6804460E466AB18378916803F0F6
:103D90000303013B25FA03F310688F6832460021C4
:103DA0009BB2B84710B90020C4E90565F8BD00BF53
:103DB000D0B506461046346AA36823F44013A360C6
:103DC000A36C5A00FCD5A36823F01003A360237FE3
:103DD000C3F30012DB06FAD4F369C6E903101F69C6
:103DE00077B168B1B378BC6803F00303013B20FAF4
:103DF00003F3A468386832619BB2A04728B9346ADB
:103E00000020A36843F01013A360D0BD84460020B7
:103E1000CCE90A32CCF82410704700BF844630B495
:103E20000024DCF820300D689A68204622F4441102
:103E300021F0110122F440129960CCF80C401D6170
:103E40009A6030BC704700BF4FF0FF32C369D8683A
:103E5000C1E9002210B14FF480324A601B6913B1EE
:103E60004FF480330B600020704700BF30B5002254
:103E700004460D46D0E90613D86885B02960A261D2
:103E800070B1826800681369984748B9E369694668
:103E9000DB689A681868D369984708B9039B2B6058
:103EA00005B030BD70B58D070E4604461AD5026ABE
:103EB000936823F440139360936C5800FCD5936887
:103EC00023F010039360137FD906C3F30015FAD4CF
:103ED000E3691B69ABB19A68186813699847256153
:103EE00008B170BD0620F307FBD50023E269D06856
:103EF000A3610028F5D0BDE87040836800681B69A5
:103F0000184718462361EEE73C4B42689A4273D14A
:103F100010B50446026A936823F4401393609368D3
:103F200023F010039360137FDB06FCD40123E269C6
:103F3000334992F90720500902F01F02203003FA9A
:103F400002F241F82020BFF34F8FBFF36F8FE26979
:103F500092F90920500902F01F0203FA02F2203000
:103F600041F82020BFF34F8FBFF36F8F206A826824
:103F700022F480328260E26992F90520500902F051
:103F80001F0203FA02F2203041F82020BFF34F8FC6
:103F9000BFF36F8FE26992F90B20500902F01F0204
:103FA000934000F1200241F82230BFF34F8FBFF35E
:103FB0006F8FE369DA6822B1936810681B6A9847CB
:103FC000E3691B691BB19A681868136A9847EFF395
:103FD0001081012383F310884FF00043E069094A00
:103FE0000078C340506803435360536881F31088DE
:103FF00000231846636010BD0720704742494353B1
:1040000000E100E00040084000222DE9F0410127D6
:104010000B78027003F5800303F58C531B020362D7
:104020004B69CE6943628B69C161C36283788262E6
:1040300067F3010383704B780D46044623B90222CF
:10404000837862F301038370012795F90B10C94B44
:104050004A0901F01F0C203207FA0CFCA87A43F839
:1040600022C0BFF34F8FBFF36F8FC34A01F1C00C63
:1040700052F82CE000016FF3104E42F82CE0DFF80C
:1040800010C303EB010EC0B28EF800034CF82140C0
:1040900095F9051028794FEA511E01F01F080EF11D
:1040A000200E07FA08F843F82E80BFF34F8FBFF3B6
:1040B0006F8F01F1C00E52F82E8000016FF310488F
:1040C00042F82E80C0B203EB010E8EF800034CF8CC
:1040D000214095F90710A8794FEA511E01F01F08F9
:1040E0000EF1200E07FA08F843F82E80BFF34F8F29
:1040F000BFF36F8F01F1C00E52F82E8000016FF3F5
:10410000104842F82E80C0B203EB010E8EF8000377
:104110004CF8214095F90910287A4FEA511E01F018
:104120001F080EF1200E07FA08F843F82E80BFF39F
:104130004F8FBFF36F8F01F1C00E52F82E80000138
:104140000B44C0B26FF3104842F82E8083F800038E
:10415000EB684CF82140DBB14FF4002C5968E06962
:104160000A68C2F800C090F801C0206ABCF1000FD4
:1041700005D192F803C067F3051C82F803C05060B4
:104180009A681868136898470746002840F0E4804A
:104190002B69C3B14FF0006059680A681060E0698C
:1041A0004778206A04302FB94FF0010CD7786CF3B0
:1041B0000517D77090609A68186813689847074683
:1041C000002840F0CC80EFF31080012383F31088A7
:1041D0004FF00042694B297822FA01F15A6822EA2D
:1041E00001025A605B6880F310884FF48063E869CD
:1041F000226A416893606B78EF781B02BF0390F8E6
:1042000000C007F4804703F440733B4347784FEA0C
:104210000C6E0EF0407EFF03BFB243EA0E033B4339
:10422000ACF1020E43F48053BEF1010F2F78AD784C
:10423000536140F2AF800B681361037B03F003030B
:1042400043F0300135B1022D0CBF4FF480734FF4B1
:1042500040731943837800201B0703F080530B43FE
:10426000D36040F21F23002123FA07F79161F90779
:104270004FF0010748BF424B718948BF5362C4E900
:104280000300C4E905003F4BD4F81CC021819366AC
:104290009CF90550384905F1C00E6B0951F82E8084
:1042A0009B0005F01F0503F1604307FA05F503F5D0
:1042B000614360F3104841F82E80C3F880511D60BF
:1042C0009CF90B50304E05F1C00E6B0951F82E8051
:1042D0009B0005F01F0503F1604307FA05F503F5A0
:1042E000614360F3104841F82E80C3F880511D608F
:1042F0009CF9075005F1C00E6B0951F82E809B0008
:1043000005F01F0503F1604307FA05F503F5614366
:1043100060F3104841F82E80C3F880511D609CF96D
:10432000095005F1C00C6B0905F01F05AF409B005B
:1043300051F82C5003F1604303F5614360F31045DD
:1043400041F82C50C3F880711F609660137FDB0723
:10435000FCD500270D4B63603846BDE8F081EB6863
:10436000002BF9D09A681868136A98473846BDE858
:10437000F08100BF00E100E0006000400040084024
:1043800000001F1F1000079D110401004249435304
:10439000E8970020034B0449BCF1020F08BF0B460D
:1043A0004AE700BF04FF00FF24FF00FFF0B585B01F
:1043B000EFF30383103B5BB2294A03F1C00152F8CB
:1043C0002100284C6FF3104042F8210054F823409C
:1043D000E66933691BB123691BB105B0F0BD2369E0
:1043E0001BBB0021226AA56A936823F4801343F45F
:1043F00000139360E16045B395E80F006F4687E8CE
:104400000F008022002331782A71AB60E36A2846CE
:10441000EB602960636A9847A46A002CDDD097E8B6
:104420000F0084E80F0005B0F0BDA27802F0030190
:104430000229E1680CD0206A0D78456002F0030281
:104440009B1A0A44C4E90323C6E76F463D46D8E7F2
:104450000888256A20F4DC4080B26860EEE700BF7F
:1044600000600040E8970020F0B587B0EFF30383C9
:10447000103B5BB23A4A03F1C00152F82100394CBB
:104480006FF3104042F8210054F82340D4F81CC0C8
:10449000DCF80C30002B4ED0A369002B38D1A27869
:1044A00002F003010229216A0F680CBFC7F3080755
:1044B000FFB20197D3B9A66A02AD002E4BD096E8A1
:1044C0000F0085E80F00042330469CF80020B760F9
:1044D00032603371E36AF360636A9847A46AACB1EF
:1044E00095E80F0084E80F0007B0F0BD02F003026A
:1044F00001A9606904F06CF8D4E90513A27802F010
:10450000030211449B1AC4E90513C3B107B0F0BDFF
:104510000023A66AC4E9053302AD76B196E80F0020
:1045200085E80F00012200239CF80010304631601E
:104530003271B360CEE7A369B1E72E46F2E7A66A0F
:1045400002AD56B196E80F0085E80F00E16901223F
:1045500000230978EAE72E46B5E72E46F6E700BFC6
:1045600000600040E8970020F0B585B0EFF30385C8
:10457000184B103D6DB253F825606F46326AB46A2D
:10458000936823F4401323F010039360FCB194E884
:104590000F0087E80F00F36902221B782271236065
:1045A0000023A360F36A2046E360736A9847B46A05
:1045B0001CB197E80F0084E80F00074BC03553F893
:1045C00025206FF3104243F8252005B0F0BD3C468E
:1045D000E1E700BFE8970020006000402DE9F041CE
:1045E00084B0EFF30385274B103D6DB253F825607F
:1045F000B378326A03F00303022B1768936C08BF89
:10460000C7F308074FEA23614FEAD34301F01000D4
:1046100003F0200343EA000301F0080118BFFFB2D2
:1046200043EA010CD90604D5936C1B0458BF4CF027
:10463000400C936EB46A43F0C853E8469366FCB1ED
:1046400094E80F0088E80F00F36920461B7884F88F
:1046500004C02360F36AA760E360736A9847B46A92
:104660001CB198E80F0084E80F00074BC03553F8E1
:1046700025206FF3104243F8252004B0BDE8F081F7
:104680004446E1E7E897002000600040CB6870B442
:1046900003F5800303F50A631B0241608360EFF3B7
:1046A000108C012282F31088244CCB68E568C3F19A
:1046B0000E0302FA03F325EA0303E360E3688CF3D5
:1046C00010888B780D881B0743EA0513002591F8A5
:1046D00003C0846843EA4C7323604B68C3608B68F3
:1046E00005614361164B036091F91030AB4221DB49
:1046F000497C03F16044134E0901C9B204F56144D9
:1047000084F8001346F8230059090F4803F1C00448
:10471000890003F01F0302FA03F301F1604250F82D
:10472000241002F5614265F3104140F82410C2F8EC
:1047300080311360002070BC704700BF004008400B
:1047400054504700E89700200060004003469A68F4
:104750000020136843F008031360704703469A680B
:104760000020136823F4803323F00F031360704795
:1047700002469268024B1268002013400B6070479B
:104780000F00010084460020CCE90432CCF80C1064
:10479000704700BF436893F91030002B1BDB0121E9
:1047A00010B45A090E4C03F01F03203201FA03F330
:1047B00044F82230BFF34F8FBFF36F8F0021426860
:1047C000084B92F910205DF8044B43F822100023A7
:1047D000036018467047002303601846704700BF07
:1047E00000E100E0E897002030B583B0EFF30384E8
:1047F0000E4B103C64B253F824502869A0B10368F2
:1048000001936A69EB68026098472B6913B12B69C1
:10481000019A1A60064BC03453F824206FF31042FB
:1048200043F8242003B030BD01A8EAE7E897002050
:10483000006000400022034610461A60704700BF27
:1048400030B4EFF31084012383F310881D4B1868F4
:1048500028B94FF0400C1C4D287385F80CC018681F
:104860000130186084F31088D4034FEA1120C9B2D4
:1048700019D40001154C014444F82120EFF31082B3
:10488000012181F31088196811B119680139196083
:104890001B681BB980200C490B73087382F31088C6
:1048A000002030BC7047094C01EB001C54F82C5020
:1048B00000016FF3104544F82C5022F4803544F881
:1048C0002C50D7E7E497002000FD014000F801409C
:1048D0000B0A10B41B01064C53FA81F154F8213035
:1048E0000020C3F340035DF8044B1370704700BF12
:1048F00000F80140090A490101F1804101F5F83150
:104900004B68002013807047090A490123EA020C12
:1049100001F180411A4001F5F83142EA0C420020D1
:104920008A6070470123C8B283404AB91A040B0A4F
:104930005B0103F1804303F5F83300209A60704770
:104940009AB2F4E7090A490101F1804101F5F83111
:1049500010B40C6802EA030C4CEA040C62EA03028D
:1049600002EA0C0200205DF8044B0A60704700BFA9
:10497000090A490101F1804101F5F8314B68002035
:10498000C3F30F4313807047012310B44FEA112C77
:104990004FEA4C1C0CF1804C0CF5F83CDCF8044060
:1049A000C9B203FA01F18BB201EA1441C91AB1FA92
:1049B00081F1490900205DF8044B1170704700BF78
:1049C000090A490123EA020C01F180411A4001F56C
:1049D000F83142EA0C420020CA607047012A14D024
:1049E0004FF480300B0A5B0103F1804303F5F83389
:1049F00010B4CAB2DC6800FA02F22243120C1204AC
:104A000000205DF8044BDA6070470B0A5B0103F18C
:104A1000804303F5F833D868C9B28A40024392B2A2
:104A20000020DA60704700BF0620704770B5EFF3D2
:104A30001082012383F31088244E33681BB9244964
:104A40000B7340230B7333680133336082F3108898
:104A5000038843B3406803F1FF3E1FFA8EFE00F166
:104A6000080C1C4C0CEBCE0E06E0E645604644F804
:104A7000231018D00CF1080C82880168130A1B015E
:104A8000C80321F4803553FA82F3EED554F823207D
:104A9000E6456FF3104244F82320604644F8235063
:104AA00044F82310E6D1EFF31082012383F310883A
:104AB000336813B13368013B336033681BB980201E
:104AC00003490B73087382F3108870BDE4970020CC
:104AD00000FD014000F8014008B5034B03600846A3
:104AE000FFF7A4FF002008BD54524F5008B50846F8
:104AF000FFF79CFF002008BD03465A681B69002091
:104B00009360704703465A681B69002053607047E2
:104B100003465A681B690020D360704730B4037D98
:104B2000022B28D08269436854680A6864685A6511
:104B30009A652278062A0AD084684D68C3688A6814
:104B400000206565A5655A6530BC9A657047CD68DB
:104B5000D0E90242DD6548681D660B696065A065A5
:104B6000E365886823664B6930BC5065906500201A
:104B7000D3651366704743680C68CA684D685C6506
:104B80009C65DA650C691A668268C3685565886831
:104B90009565D46514664A6930BC586598650020EF
:104BA000DA651A66704700BF2DE9F04106460D46EA
:104BB000071D0C1D01F110082368D3E9000100F066
:104BC00003FA54F8043B1B689B6847F8043B2A78B7
:104BD000022A03D1196C41F4202119644445EBD118
:104BE0006969044B327500203161B5613360BDE8FD
:104BF000F08100BF33545047806990F810C000EB3B
:104C00008C004068006800F097B800BF38B50023FA
:104C100005461C464268016903609160AB6903EB7D
:104C200084035B680134186800F0BCF8032CF5D1EC
:104C3000002038BD03460020D3E90223936070476B
:104C400003460020D3E90223536070470346002047
:104C5000D3E90223D3607047034630B4D3E901237C
:104C6000D2690020D2E9011444F00045D46841F033
:104C7000004144F000445D619C61D2E90442196145
:104C80005C629A6230BC70474FF00041002283683A
:104C900010461961596199615A629A62704700BF62
:104CA00010B443681A788368032A13D84C1E9C6694
:104CB0001AB94908013959659965DA6AD20705D4E4
:104CC0004FF4AA01C2685C661964DA6000205DF8DE
:104CD000044B70470C469966EFE700BF30B4D0E94B
:104CE000012310785A6E03280C4D98BF01320C4CEA
:104CF0008A60D86A2A6A2368C2F3026C03FA0CF34A
:104D00004FF0010C30BC02F00702C0F3C350D34097
:104D1000C3404B60002081F800C0704700E00140B4
:104D20007099002003469A680020D36AC3F30003F9
:104D30000B71936C0B60704784460020CCE90632FF
:104D4000CCF81410704700BF002826DB4FF0010C90
:104D500010B400F160430901104CC9B203F561437E
:104D600083F800130E4B44F8202000F1C00253F8E2
:104D700022106FF3104143F8221043099B0000F00A
:104D80001F0003F1604303F561430CFA00F0C3F820
:104D900080015DF8044B186070477047E897002069
:104DA0000060004030B4436893F91220DB69002AA8
:104DB00010DB012402F01F05AC4051092A4D2031BF
:104DC00045F82140BFF34F8FBFF36F8F0024274971
:104DD00041F8224093F92420002A10DB012402F03C
:104DE0001F05AC405109204D203145F82140BFF34B
:104DF0004F8FBFF36F8F00241C4941F8224093F975
:104E00002520002A10DB012402F01F05AC405109C7
:104E1000154D203145F82140BFF34F8FBFF36F8F01
:104E20000024124941F822409B6AA3B193F9013052
:104E3000002B10DB01210C4C5A0903F01F05203216
:104E4000A94044F82210BFF34F8FBFF36F8F0021AA
:104E5000064A42F823100023D0E9022130BC036047
:104E6000184691605363704700E100E0E897002026
:104E7000F0B5D0E9013493F800C0606EBCF1030FC7
:104E800002F0030598BF013009B1814228D3636B5A
:104E9000D70754BF03F01F03C3F30443BCF1030F50
:104EA00007D91B0983F0010361B9002B41D1022608
:104EB0000BE003F00C03A3F10403B3FA83F35B09E3
:104EC0000029F2D081422FD20326236B012D27D057
:104ED000022A66F3114333D025BB00202363F0BDC3
:104EE000BCF1030F2AD84F1E02F00803002B0BBFA2
:104EF0004FF0030E4FF0050E0220042012F00206C0
:104F0000236B24D012300EF1120E04EB800004EB60
:104F10008E0E012D47604FF00006CEF80470D7D1F9
:104F2000022A0DD036060CE0002B0CBF0326022609
:104F3000CBE7002814BF03260226C6E70F46D3E7B7
:104F40005EB923F04073334300202363F0BD28444F
:104F5000123004EB80004760B8E7BCF1030F606ECD
:104F600010D80130B1B9626BC2F3044202F00C02F6
:104F7000A2F10402B2FA82F2520989B9CAB94FF019
:104F80000076DEE749B9626BC2F30442120982F08F
:104F90000102F2E78142E6D2C4E78142F3D2C1E7DF
:104FA00081420DD3002A0CBF4FF040764FF00076BF
:104FB000C7E7002814BF4FF040764FF00076C0E7F7
:104FC0004FF04076BDE700BF2DE9F04F01260A7C87
:104FD0000D4606FA02F3C360C3F30903044683B027
:104FE0004160002B40F0A880067400200121B14BE5
:104FF000EE6913441B02A3606B696361AB69A06136
:10500000E361AD4BC3F8001BEFF3108081F3108810
:10501000A3F565231A6922F000421A611B6980F327
:105020001088D4F80CE01EF00F0F0ED0EFF31080B4
:1050300081F31088A14AE16853889BB223EA0103F7
:10504000538080F31088D4F80CE000204FF4254200
:10505000A3681A60D862D863986429782F7A0329E4
:105060006A684FEAC75727D9D6E9069847EA014741
:10507000DF624FF00047D6F82CC01F615F619F616F
:1050800058629862C3F81C90C3F820809A665A66EA
:1050900062685F6E1078EA68032800F2EB800137DF
:1050A000002A00F0F380BA4280F0F0804FF001094E
:1050B0004FF00308013A1EE04FF00048D6E906A978
:1050C000DF62571ED6F82CC0C3F81080C3F81480D6
:1050D000C3F8188058629862C3F81CA0C3F82090E7
:1050E0009F665F66002940F00F814FF001094FF085
:1050F00003085208013A5A659A65BCF1000F1ED1A7
:105100003278002A40F0A5806246B078C0B1F778C6
:1051100002294FEA071040EA871000F0F1800329C6
:1051200000F2FD80002F14BF09270627384342EA0A
:10513000004242F0807203E00023037455E76246A8
:1051400040F2FF3A287CB76A2AFA00FA1AF0010AFC
:105150001CBF00205864002F00F09480B87897F8A6
:1051600003B0000640EA0B7097F804B040EA0B4029
:105170009863B868C3F88C00002864D001200190BF
:10518000BAF1000F14D097F819A097F818B04FEAA9
:105190000A2A4AEA8B1A97F81AB0F8684AEA0B3AD0
:1051A000C3F844A0C3F89000386918677869D867D5
:1051B000BCF1000F09D197F81CA097F81BB04FEA7B
:1051C0004A6A4AEA4B2A42EA0A020198C3F888006E
:1051D000BCF1000F07D196F8210096F820C04007D7
:1051E00040EA4C3002434FF4AA000129186402D16E
:1051F0000021D9641965C3F80CE05A63C3F8308004
:10520000C3F830902246697C95F91200FFF79CFDA7
:10521000224696F8221096F92400FFF795FD2246C3
:1052200096F8231096F92500FFF78EFD2FB1224640
:10523000397897F90100FFF787FD0020204B2360A4
:1052400003B0BDE8F08FF868003818BF0120019066
:1052500096E7707802294FEA001242EA801251D094
:1052600003295AD8002814BF09200620024342F41B
:1052700080724AE752B3BA4228D24FF001094FF088
:10528000030838E79F63C3F88870A1E7586B00F004
:105290001F0000F00C00A0F10400B0FA80F04009FB
:1052A000E2B900283DD14FF0FF32DFF81890DFF867
:1052B000188020E7901640000090164000A016408D
:1052C000545047000100020203000202586B00F034
:1052D0001F00000980F00100002AE2D0BA4230D35A
:1052E00000281B4A1B4814BF9146814602F1020266
:1052F00000F1020014BF904680464FF0FF32FAE6FC
:10530000092713E70920B1E701297FF4C1AE8946D7
:105310004FF003084FF0FF32EDE60320A6E7032726
:1053200004E70C480A4A002F14BF8146914600F159
:10533000020002F102020CBF904680464FF0FF329D
:10534000D9E64FF0FF32DFF80C90DFF80C80D2E6A0
:1053500001000202010003030300030303469B68EC
:105360000020703343F82120704700BFF0B585B0AE
:10537000EFF30383103B214A5BB203F1C00152F803
:1053800021001F4C6FF3104042F8210054F82340D5
:1053900060680078012817D1D4E902670025B7605A
:1053A000B564F564356552F821604FEA531C154F1A
:1053B00003F01F0300FA03F365F310460CF16000DD
:1053C00042F8216047F8203066699EB1A36901ADBB
:1053D00093B193E8070085E8070000221A719A60EC
:1053E000E26918461A60B047A3691BB195E8070047
:1053F00083E8070005B0F0BD2B46EEE700600040F3
:10540000E897002000E100E030B490F90400204D5E
:1054100082B0019100F1C00C009255F82C201D4C77
:105420006FF3186245F82C2055F82C10C1F30801D1
:1054300041F40041E28992B28A42FBD008222274F0
:10544000019A1AB3144A019C52F820104C6000993A
:1054500019B152F82010009C8C6052F82010CA78C4
:1054600002F0C002802A0FD002B9CB81182100209F
:10547000084B074A197452F82C3043F0807342F8F5
:105480002C3002B030BC70478B81EFE7024ADEE778
:1054900000600040005400400000002006207047DB
:1054A00006207047034693F904300549C03351F88C
:1054B0002320002042F0807241F82320704700BF73
:1054C00000600040034693F90430054AC03352F8A7
:1054D000231000206FF3186142F82310704700BFBB
:1054E0000060004010B40024154B90F9042053F8DC
:1054F0002220D378C1E9004413F0C0030BD04FF44D
:105500008074D089802BC0B2C1E902400DD0002048
:105510005DF8044B70474FF48030D3895DF8044B3D
:105520009BB2C1E90203002070474FF48030938999
:105530005DF8044B9BB2C1E900030020704700BF37
:10554000000000200346002270B493F90410084CB8
:1055500001F1C00C54F82C50064E6FF3186544F856
:105560002C50104646F821201A6070BC704700BFCE
:105570000060004000000020294AF8B51378054675
:105580000C4673B3636893F90000002846DB254E90
:1055900056F820300BB10820F8BD28712468234646
:1055A000DA78194612F0C00F15D0DA891033D2B26A
:1055B00042EA022223F8022C8A7812F0C00FEFD1BF
:1055C00008221821184B1A74184A46F820401970FE
:1055D00000202A60F8BD8A78103312F0C00FDFD1A6
:1055E000EEE701261670EFF3108086F31088104A5C
:1055F000116821F480011160126880F31088094F4E
:1056000019464FF4C072384602F0EFFF064B5F6157
:105610001E73636893F900000028B8DA0B20F8BD08
:10562000989700200000002000540040004354449C
:105630000040084010B590F904E01E4B0EF1C00C7C
:1056400053F82C201C4C6FF3186243F82C2053F8AD
:105650002C20C2F3080242F40042E3899BB2934239
:10566000FBD00B46DA78184612F0C00F1BD0DA894F
:105670001033D2B242EA022223F8022C827812F0CE
:10568000C00FEFD1082218200B4B1A740B4A42F8B6
:105690002E10084A187052F82C30002043F0807306
:1056A00042F82C3010BD8278103312F0C00FD9D1DF
:1056B000E8E700BF00600040005400400000002008
:1056C0008268117B01F00101137BC3F3400399420F
:1056D000FAD1F12300201373704700BF8268117B59
:1056E00001F00101137BC3F340039942FAD1F02387
:1056F00000201373704700BF8268117B01F0010125
:10570000137BC3F340039942FAD1C3680020013BE5
:105710001360704703464FF0F10CD3E90212013ACF
:105720000A60002081F80CC0704700BF0346F022D9
:105730009B6800201A737047826892F80CC00CF0C6
:10574000010C137BC3F340039C45FAD14368C1604D
:1057500093F810C003484B1E40F82C101360002033
:10576000704700BF9C9700200620704710B48268E5
:1057700092F80CC00CF0010C137BC3F340039C4562
:10578000FAD14368C468D8698C600078502820D06A
:10579000537BC3F302105B060BD54FF40043927B9F
:1057A00002F00702D34000205DF8044B4B60087004
:1057B0007047214A214B126A1B68C2F30264A3405E
:1057C000C2F30222D3400028EDD080F00200C34093
:1057D000E9E71B7C1A48013B50F82300F0B112F8AE
:1057E000F33CA2F58072C3F302145B061CD4124A88
:1057F000124B126A1B68C2F3026C03FA0CF3C2F379
:105800000222D34014B184F00204E340B3FBF0F36E
:1058100000205DF8044B4B60087070474860002022
:105820005DF8044B087070474FF40043927B02F020
:105830000702D340EAE700BF00E001407099002072
:105840009C9700208268107B00F00100137BC3F35B
:1058500040039842FAD1137B0020C3F340030B713D
:1058600013680B60704700BF84460020CCE9053206
:10587000CCF81010704700BF8268117B01F0010165
:10588000137BC3F340039942FAD14FF0F40C00218B
:10589000436882F80CC0117493F9123013F1210F90
:1058A0001FD08B421ADB012110B45A090F4C03F0B0
:1058B0001F03203201FA03F344F82230BFF34F8F65
:1058C000BFF36F8F43680A4A93F912305DF8044BB7
:1058D00042F823000023036018467047044A42F848
:1058E0002300002303601846704700BF00E100E07A
:1058F000E8970020F0B50B7C416003F5800303F5C9
:1059000068631B028360EFF31085012383F3108823
:105910000C7C384AC4F10304A340D46824EA03038E
:10592000D360D36885F31088002382681373137BD8
:10593000C3F3400C9B07FAD4CC6982F80EC0E3781D
:1059400026780D7A247903F00703002E44D1002D28
:1059500049D14FF0000C14744C68D0F804E082F880
:1059600012C053739573C4609EF81030224F661EA8
:10597000166047F8234091F91230634522DB012479
:105980004A7C03F1604512011C4ED2B205F5614517
:1059900085F800231A4D46F823005A0903F1C00682
:1059A00003F01F0304FA03F3920055F8264002F1B6
:1059B000604202F561426CF3104445F82640C2F89B
:1059C000803113600023D1E905410E4A04618161F1
:1059D000026043611846F0BD502E06BF654643F095
:1059E00050033343B5E785F0020543EA0513DBB204
:1059F0003546AEE7004008409C970020E89700201D
:105A00000060004054474100F0B585B0EFF30383D8
:105A1000103B204A5BB203F1C00152F821001E4C3A
:105A20006FF3104042F8210054F82340D4E90112EA
:105A30000878137B0128DBB20BD1F42703F0F003C5
:105A4000E06817731373097C144E451E46F8210055
:105A500015602769BFB1656901AECDB195E8070052
:105A600086E807009B0644BF00232B71A3692846E4
:105A70002B60B84763691BB196E8070083E807000D
:105A8000A268137BDBB203F00F03137305B0F0BD04
:105A90003546E7E700600040E89700209C9700202B
:105AA00084460020CCE90432CCF80C10704700BFCB
:105AB0000346044A19680020C2F8081C5B68C2F853
:105AC000103C70470000174084460B4ADCF8003059
:105AD00010B4D2F8084C0B402343C2F8083CDCF861
